:100000000C942A000C9434000C9434000C943400AA
:100010000C9434000C9434000C9434000C94340090
:100020000C9434000C9434000C9434000C94340080
:100030000C9434000C9434000C9434000C94340070
:100040000C9434000C9434000C9434000C94340060
:100050000C94340011241FBECFE5D8E0DEBFCDBF25
:100060000E9409030C9425030C940000CF93DF93A6
:1000700000D0CDB7DEB789836A838981882F90E06D
:100080008130910599F0823091051CF4892B39F06B
:1000900022C08230910589F00397B1F01CC08AE339
:1000A00090E02A81E82FF92F208315C087E390E0A4
:1000B0002A81E82FF92F20830EC084E390E02A8163
:1000C000E82FF92F208307C081E390E02A81E82FF1
:1000D000F92F2083000000000F900F90DF91CF9147
:1000E0000895CF93DF9300D01F92CDB7DEB78983F9
:1000F0006A834B838B81813009F06FC08981882F9F
:1001000090E08130910521F1823091051CF4892B1A
:1001100041F0DAC08230910591F1039709F446C0AD
:10012000D3C08AE390E02AE330E0E22FF32F20816E
:10013000622F2A81422F50E021E030E002C0220FDE
:10014000331F4A95E2F7262BE82FF92F2083BCC0F6
:1001500087E390E027E330E0E22FF32F2081622F46
:100160002A81422F50E021E030E002C0220F331FED
:100170004A95E2F7262BE82FF92F2083A5C084E3C8
:1001800090E024E330E0E22FF32F2081622F2A81D8
:10019000422F50E021E030E002C0220F331F4A9589
:1001A000E2F7262BE82FF92F20838EC081E390E021
:1001B00021E330E0E22FF32F2081622F2A81422FAA
:1001C00050E021E030E002C0220F331F4A95E2F7F1
:1001D000262BE82FF92F208377C08B81882309F005
:1001E00073C08981882F90E08130910529F1823098
:1001F00091051CF4892B41F067C082309105A1F173
:10020000039709F449C060C08AE390E02AE330E034
:10021000E22FF32F2081622F2A81422F50E021E02C
:1002200030E002C0220F331F4A95E2F720952623C3
:10023000E82FF92F208348C087E390E027E330E0E0
:10024000E22FF32F2081622F2A81422F50E021E0FC
:1002500030E002C0220F331F4A95E2F72095262393
:10026000E82FF92F208330C084E390E024E330E0CE
:10027000E22FF32F2081622F2A81422F50E021E0CC
:1002800030E002C0220F331F4A95E2F72095262363
:10029000E82FF92F208318C081E390E021E330E0BC
:1002A000E22FF32F2081622F2A81422F50E021E09C
:1002B00030E002C0220F331F4A95E2F72095262333
:1002C000E82FF92F2083000000000F900F900F906F
:1002D000DF91CF910895CF93DF9300D0CDB7DEB7F4
:1002E00089836A838981882F90E08130910599F014
:1002F000823091051CF4892B39F022C0823091059F
:1003000089F00397B1F01CC08BE390E02A81E82FBD
:10031000F92F208315C088E390E02A81E82FF92F78
:1003200020830EC085E390E02A81E82FF92F2083F7
:1003300007C082E390E02A81E82FF92F2083000094
:1003400000000F900F90DF91CF910895CF93DF932E
:1003500000D01F92CDB7DEB789836A834B838B8130
:10036000813009F06FC08981882F90E0813091053C
:1003700021F1823091051CF4892B41F0DAC08230E2
:10038000910591F1039709F446C0D3C08BE390E047
:100390002BE330E0E22FF32F2081622F2A81422FBE
:1003A00050E021E030E002C0220F331F4A95E2F70F
:1003B000262BE82FF92F2083BCC088E390E028E3A8
:1003C00030E0E22FF32F2081622F2A81422F50E06C
:1003D00021E030E002C0220F331F4A95E2F7262BBE
:1003E000E82FF92F2083A5C085E390E025E330E0D6
:1003F000E22FF32F2081622F2A81422F50E021E04B
:1004000030E002C0220F331F4A95E2F7262BE82F77
:10041000F92F20838EC082E390E022E330E0E22FC8
:10042000F32F2081622F2A81422F50E021E030E01B
:1004300002C0220F331F4A95E2F7262BE82FF92F2F
:10044000208377C08B81882309F073C08981882F2E
:1004500090E08130910529F1823091051CF4892BBF
:1004600041F067C082309105A1F1039709F449C0BA
:1004700060C08BE390E02BE330E0E22FF32F20818C
:10048000622F2A81422F50E021E030E002C0220F8B
:10049000331F4A95E2F720952623E82FF92F208372
:1004A00048C088E390E028E330E0E22FF32F20817A
:1004B000622F2A81422F50E021E030E002C0220F5B
:1004C000331F4A95E2F720952623E82FF92F208342
:1004D00030C085E390E025E330E0E22FF32F208168
:1004E000622F2A81422F50E021E030E002C0220F2B
:1004F000331F4A95E2F720952623E82FF92F208312
:1005000018C082E390E022E330E0E22FF32F208155
:10051000622F2A81422F50E021E030E002C0220FFA
:10052000331F4A95E2F720952623E82FF92F2083E1
:10053000000000000F900F900F90DF91CF91089571
:10054000CF93DF9300D01F92CDB7DEB78A836B8342
:100550008A81882F90E081309105F1F082309105F9
:100560001CF4892B39F04EC08230910539F1039784
:10057000B9F148C089E390E0E82FF92F8081882FF6
:1005800090E02B81222F30E002C0959587952A9527
:10059000E2F78170898336C086E390E0E82FF92F77
:1005A0008081882F90E02B81222F30E002C095952A
:1005B00087952A95E2F78170898324C083E390E0D0
:1005C000E82FF92F8081882F90E02B81222F30E0B7
:1005D00002C0959587952A95E2F78170898312C0AC
:1005E00080E390E0E82FF92F8081882F90E02B8125
:1005F000222F30E002C0959587952A95E2F7817009
:100600008983000089810F900F900F90DF91CF9127
:1006100008956FEF80E00E943600C0E041E06C2F4B
:1006200080E00E94A6012FE986E891E021508040F9
:100630009040E1F700C0000040E06C2F80E00E9495
:0E064000A601CF5FC83051F7E8CFF894FFCF86
:00000001FF
